:020000040800F2
:100000000000022005210008652100086521000884
:100010006521000865210008652100080000000036
:10002000000000000000000000000000394500084A
:10003000652100080000000055460008A54600089C
:100040006521000865210008652100086521000878
:100050006521000865210008652100086521000868
:100060006521000865210008652100086521000858
:100070006521000865210008652100086521000848
:100080006521000865210008652100086521000838
:100090006521000865210008652100086521000828
:1000A0006521000865210008652100086521000818
:1000B0006521000865210008652100086521000808
:1000C00065210008652100086521000865210008F8
:1000D00065210008DD13000895240008652100084B
:1000E00065210008652100086521000865210008D8
:1000F00065210008652100086521000865210008C8
:1001000065210008652100086521000865210008B7
:1001100065210008652100086521000865210008A7
:100120006521000865210008652100086521000897
:100130006521000865210008652100086521000887
:100140006521000865210008652100086521000877
:100150006521000865210008652100086521000867
:100160006521000865210008652100086521000857
:100170006521000865210008652100086521000847
:0801800065210008652100085B
:1001880010B540F24854C2F20004237863B940F233
:100198000000C0F2000028B145F66820C0F6000053
:1001A800AFF300800121217010BD00BF08B540F2F7
:1001B8000003C0F200034BB145F6682040F24C51F1
:1001C800C0F60000C2F20001AFF3008040F24450D4
:1001D800C2F20000016829B140F20003C0F2000336
:1001E80003B1984708BD00BF81F0004102E000BF9D
:1001F80083F0004330B54FEA41044FEA430594EADF
:10020800050F08BF90EA020F1FBF54EA000C55EA19
:10021800020C7FEA645C7FEA655C00F0E2804FEAEA
:100228005454D4EB5555B8BF6D420CDD2C4480EACC
:10023800020281EA030382EA000083EA010180EAFC
:10024800020281EA0303362D88BF30BD11F0004F4A
:100258004FEA01314FF4801C4CEA113102D0404280
:1002680061EB410113F0004F4FEA03334CEA1333BB
:1002780002D0524263EB430394EA050F00F0A780D3
:10028800A4F10104D5F1200E0DDB02FA0EFC22FACE
:1002980005F2801841F1000103FA0EF2801843FAC2
:1002A80005F359410EE0A5F120050EF1200E012AB3
:1002B80003FA0EFC28BF4CF0020C43FA05F3C018F1
:1002C80051EBE37101F0004507D54FF0000EDCF16A
:1002D800000C7EEB00006EEB0101B1F5801F1BD313
:1002E800B1F5001F0CD349085FEA30004FEA3C0C17
:1002F80004F101044FEA445212F5800F80F09A800D
:10030800BCF1004F08BF5FEA500C50F1000041EB10
:10031800045141EA050130BD5FEA4C0C404141EB14
:10032800010111F4801FA4F10104E9D191F0000F3B
:1003380004BF01460020B1FA81F308BF2033A3F1BE
:100348000B03B3F120020CDA0C3208DD02F1140CB5
:10035800C2F10C0201FA0CF021FA02F10CE002F1F0
:100368001402D8BFC2F1200C01FA02F120FA0CFCE9
:10037800DCBF41EA0C019040E41AA2BF01EB045132
:10038800294330BD6FEA04041F3C1CDA0C340EDC30
:1003980004F11404C4F1200220FA04F001FA02F373
:1003A80040EA030021FA04F345EA030130BDC4F131
:1003B8000C04C4F1200220FA02F001FA04F340EA26
:1003C8000300294630BD21FA04F0294630BD94F0D7
:1003D800000F83F4801306BF81F480110134013DBE
:1003E8004EE77FEA645C18BF7FEA655C29D094EA2F
:1003F800050F08BF90EA020F05D054EA000C04BFAD
:100408001946104630BD91EA030F1EBF0021002097
:1004180030BD5FEA545C05D14000494128BF41F036
:10042800004130BD14F580043CBF01F5801130BD9A
:1004380001F0004545F0FE4141F470014FF0000025
:1004480030BD7FEA645C1ABF194610467FEA655CD6
:100458001CBF0B46024650EA013406BF52EA033578
:1004680091EA030F41F4002130BD00BF90F0000F66
:1004780004BF0021704730B54FF4806404F13204A2
:100488004FF000054FF0000150E700BF90F0000F5B
:1004980004BF0021704730B54FF4806404F1320482
:1004A80010F0004548BF40424FF000013EE700BF52
:1004B80042004FEAE2014FEA31014FEA02701FBFE2
:1004C80012F07F4393F07F4F81F06051704792F0B4
:1004D800000F14BF93F07F4F704730B54FF460742E
:1004E80001F0004521F0004120E700BF50EA010279
:1004F80008BF704730B54FF000050AE050EA010226
:1005080008BF704730B511F0004502D5404261EB95
:1005180041014FF4806404F132045FEA915C3FF4D6
:10052800DCAE4FF003025FEADC0C18BF03325FEA6F
:10053800DC0C18BF033202EBDC02C2F1200300FA24
:1005480003FC20FA02F001FA03FE40EA0E0021FA49
:1005580002F11444C1E600BF70B54FF0FF0C4CF433
:10056800E06C1CEA11541DBF1CEA135594EA0C0FE9
:1005780095EA0C0F00F0DEF82C4481EA030621EA24
:100588004C5123EA4C5350EA013518BF52EA03355F
:1005980041F4801143F4801338D0A0FB02CE4FF011
:1005A8000005E1FB02E506F00042E0FB03E54FF041
:1005B8000006E1FB03569CF0000F18BF4EF0010E39
:1005C800A4F1FF04B6F5007F64F5407404D25FEA35
:1005D8004E0E6D4146EB060642EAC62141EA5551E8
:1005E8004FEAC52040EA5E504FEACE2EB4F1FD0C2A
:1005F80088BFBCF5E06F1ED8BEF1004F08BF5FEAA8
:10060800500E50F1000041EB045170BD06F0004659
:1006180046EA010140EA020081EA0301B4EB5C0406
:10062800C2BFD4EB0C0541EA045170BD41F48011FE
:100638004FF0000E013C00F3AB8014F1360FDEBF23
:10064800002001F0004170BDC4F10004203C35DAFF
:100658000C341BDC04F11404C4F1200500FA05F382
:1006680020FA04F001FA05F240EA020001F0004223
:1006780021F0004110EBD37021FA04F642EB060199
:100688005EEA430E08BF20EAD37070BDC4F10C04C3
:10069800C4F1200500FA04F320FA05F001FA04F287
:1006A80040EA020001F0004110EBD37041F1000173
:1006B8005EEA430E08BF20EAD37070BDC4F120057E
:1006C80000FA05F24EEA020E20FA04F301FA05F2E6
:1006D80043EA020321FA04F001F0004121FA04F28E
:1006E80020EA020000EBD3705EEA430E08BF20EA5E
:1006F800D37070BD94F0000F0FD101F00046400098
:1007080041EB010111F4801F08BF013CF7D041EA19
:10071800060195F0000F18BF704703F0004652001D
:1007280043EB030313F4801F08BF013DF7D043EAEE
:100738000603704794EA0C0F0CEA135518BF95EAA4
:100748000C0F0CD050EA410618BF52EA4306D1D12B
:1007580081EA030101F000414FF0000070BD50EA4A
:10076800410606BF1046194652EA430619D094EAD4
:100778000C0F02D150EA013613D195EA0C0F05D1BE
:1007880052EA03361CBF104619460AD181EA030112
:1007980001F0004141F0FE4141F470014FF00000CA
:1007A80070BD41F0FE4141F4780170BD70B54FF065
:1007B800FF0C4CF4E06C1CEA11541DBF1CEA1355E5
:1007C80094EA0C0F95EA0C0F00F0A7F8A4EB0504C7
:1007D80081EA030E52EA03354FEA013100F08880BE
:1007E8004FEA03334FF0805545EA131343EA126387
:1007F8004FEA022245EA111545EA10654FEA00263C
:100808000EF000419D4208BF964244F1FD0404F5F4
:10081800407402D25B084FEA3202B61A65EB030550
:100828005B084FEA32024FF480104FF4002CB6EB0D
:10083800020E75EB030E22BFB61A754640EA0C008D
:100848005B084FEA3202B6EB020E75EB030E22BFCD
:10085800B61A754640EA5C005B084FEA3202B6EB0E
:10086800020E75EB030E22BFB61A754640EA9C00CD
:100878005B084FEA3202B6EB020E75EB030E22BF9D
:10088800B61A754640EADC0055EA060E18D04FEA5B
:10089800051545EA16754FEA06164FEAC30343EAFB
:1008A80052734FEAC2025FEA1C1CC0D111F4801FC8
:1008B8000BD141EA00014FF000004FF0004CB6E7C1
:1008C80011F4801F04BF01430020B4F1FD0C88BF60
:1008D800BCF5E06F3FF6AFAEB5EB030C04BFB6EB6B
:1008E800020C5FEA500C50F1000041EB045170BD5E
:1008F8000EF0004E4EEA113114EB5C04C2BFD4EB8B
:100908000C0541EA045170BD41F480114FF0000E0E
:10091800013C90E645EA060E8DE60CEA135594EA8A
:100928000C0F08BF95EA0C0F3FF43BAF94EA0C0F8D
:100938000AD150EA01347FF434AF95EA0C0F7FF402
:1009480025AF104619462CE795EA0C0F06D152EA56
:1009580003353FF4FDAE1046194622E750EA41063A
:1009680018BF52EA43067FF4C5AE50EA41047FF44B
:100978000DAF52EA43057FF4EBAE12E74A0011D2FD
:1009880012F5001211D20DD56FF47873B3EB6252E1
:100998000ED44FEAC12343F0004343EA505323FAED
:1009A80002F070474FF00000704750EA013002D162
:1009B8004FF0FF3070474FF00000704770B545F6B4
:1009C800802645F68025C0F60006C0F60005761B91
:1009D800B61006D0002455F8043B01349847A642C7
:1009E800F9D145F6882645F68025C0F60006C0F6FA
:1009F8000005761B05F034F8B61006D0002455F82B
:100A0800043B01349847A642F9D170BD40F2000377
:100A18000146C2F20003186800F008B840F200036B
:100A28000146C2F20003186800F030BB2DE9F04F10
:100A380001F10B04162C83B0064630D924F00704C4
:100A4800E30F8C422CBF194643F0010100292FD136
:100A5800304601F007FDB4F5FC7F2DD24FEAD40EE5
:100A680040F2F405C2F2000505EBCE02D3689342CA
:100A780000F023825C6803F10807DA68304624F046
:100A8800030499681B195C68CA6044F0010491600A
:100A98005C6001F0F1FC384603B0BDE8F08F00233C
:100AA80010248C422CBF194643F001010029CFD0F5
:100AB8000C2300273360EEE75FEA542E04BF4FEAA9
:100AC800D40E4FEACE0140F08C8040F2F405C2F219
:100AD80000056918CF68B94206D10DE0002A80F2F6
:100AE8008181FF68B94207D07B6823F003031A1B92
:100AF8000F2AF3DD0EF1FF3E0EF1010E40F2F40075
:100B08002F69C2F2000000F10802974208BF43684B
:100B180026D07B6823F0030CC4EB0C030F2B00F3E7
:100B28009C81002B4261026180F29580BCF5007FB8
:100B380080F073814FEADC0C4FF00108436800EB4A
:100B4800CC014FEAAC0C08FA0CF8F960D1F808C0EF
:100B580048EA03034360C7F808C0CCF80C708F60FC
:100B680001274FEAAE0107FA01F79F427ED83B42C0
:100B780006D12EF0030E7F000EF1040E3B42FAD090
:100B880005EBCE09F046CC46DCF80C00844507D1CD
:100B980074E1002B80F29B81C068844500F06E816F
:100BA800416821F003010B1B0F2BF2DD07460119E9
:100BB800D0F80CE044F0010857F8084F43F0010C56
:100BC800C0F804803046C1F804C0C4F80CE0CEF880
:100BD800084069612961CA608A60CB5001F04CFC09
:100BE80059E7BEF1040F9EBF4FEA941E0EF1380E6E
:100BF8004FEACE017FF669AFBEF1140F9CBF0EF12C
:100C08005B0E4FEACE017FF660AFBEF1540F9EBF78
:100C18004FEA143E0EF16E0E4FEACE017FF655AF45
:100C2800BEF5AA7F9EBF4FEAD43E0EF1770E4FEA7B
:100C3800CE017FF64AAF40F254539E4595BF4FEA26
:100C4800944E4FF47C710EF17C0E4FF07E0E98BFDF
:100C58004FEACE0139E707EB0C03304608375A68EC
:100C680042F001025A6001F007FC14E7AF6840F255
:100C7800F403C2F200037A6822F003084445C4EB87
:100C8800080294BF002101210F2AD8BF41F00101B9
:100C9800002900F0B58040F2645AD3F80824C2F263
:100CA800000A0132DAF80030234408BF03F1100BC0
:100CB80006D003F580530F3323F47E6323F01F0B14
:100CC8003046594601F086FB421C814600F03181CE
:100CD80007EB0803834200F20681DAF804204B454B
:100CE8005A44CAF8042000F03181D5F8080440F2CB
:100CF800F401C2F200010130304617BFC3EB09030B
:100D0800C1F80894D218CAF8042019F007031FBFC5
:100D1800C3F10802C3F58053914403F1080209EBBB
:100D28000B0308BF4FF480521B051B0DC3EB020BCE
:100D3800594601F04FFB431C00F01D81C9EB00012F
:100D4800594441F00101DAF80420AF4240F26453FB
:100D5800C5F808905A44C2F20003C9F80410CAF84A
:100D6800042019D0B8F10F0F40F2DD80A8F10C0172
:100D7800D7F804C021F007014FF0050E78180F29A5
:100D88000CF0010C41EA0C0CC7F804C0C0F804E0F0
:100D9800C0F808E000F2E68040F26453DAF82C105C
:100DA800C2F20003AF688A42DAF8301088BFDA620C
:100DB80040F26453C2F200038A4288BF1A637B6818
:100DC80023F003039C42C4EB030294BF00230123D6
:100DD8000F2AD8BF43F0010393B13046002701F032
:100DE8004BFB58E6FB18FA68B96830465C68083768
:100DF800CA6044F0010491605C6001F03DFB4AE682
:100E08003B1942F0010244F0010430467C60083787
:100E18005A60AB6001F030FB3DE64FEA5C23042BDF
:100E28005CD9142B78D85B33D800281840F2F40822
:100E3800C2F200088168814203D160E08968884273
:100E480004D04B6823F003039C45F7D3C8686B684C
:100E5800F860B960CF60876082E6391943F0010510
:100E6800416144F00104016130467C600837CA6082
:100E78008A604D60CB5001F0FFFA0CE608F10108DA
:100E88000CF1080C18F0030F7FF47EAE4B461EF0F1
:100E9800030FA3F108010EF1FF3E79D01B688B42C6
:100EA800F5D06B687F009F423FF6E0AE002F3FF41D
:100EB800DDAE1F4271D0C64662E603F108025B69E7
:100EC8009A4208BF0EF1020E3FF418AED2E507466B
:100ED8004318C268304657F8081FD4E54FEA9C13F8
:100EE8003833D800A1E7AF4240F2F402C2F2000260
:100EF8003FF4F3AE97687B6823F0030362E74FF093
:100F08000109D8F804C09B10084609FA03F343EA1C
:100F18000C03C8F804309BE7542B0FD84FEA1C3356
:100F28006E33D80081E701234F46C9F80430002307
:100F380048E7AF687B6823F0030343E7B3F5AA7F6C
:100F48001DD84FEADC337733D8006EE71905090D51
:100F580000297FF4CAAEAB680BEB080141F0010130
:100F6800596019E7304607F10801019300F08EF83F
:100F7800019B5A6810E701214FF0000BE3E640F2AD
:100F880054518B420DD84FEA9C437C33D8004CE730
:100F98006B6823EA07036B6084E77F0008F10408A5
:100FA80087E74FF47C707E233FE700BF01460020AF
:100FB8000246034600F032B938B545F68C2445F6AA
:100FC8008825C0F60004C0F60005641BA41006D0EE
:100FD80005EB840555F8043D9847013CFAD1BDE876
:100FE800384004F043BD00BFF8B540F2F404C2F243
:100FF80000040F46054601F035FAA36828465E68E6
:1010080026F0030606F57E630F33DF1B3F0B013F17
:101018003F03B7F5805F07DB002101F0DBF9A36828
:101028009B199842284603D001F026FA0020F8BD03
:10103800794201F0CFF9013010D040F26853A1682D
:10104800C2F20003F61B284646F001061A684E60F5
:10105800D71B1F6001F010FA0120F8BD00212846B7
:1010680001F0B8F9A368C21A0F2A0DDD40F2FC445A
:1010780040F26851C2F20004C2F2000142F00102DB
:101088005A602368C01A08602846CDE7F8B50D46AF
:101098000446002975D001F0E5F955F8046C40F2D2
:1010A800F400A5F10801C2F2000026F00103CA18F5
:1010B800D0F808C05768944527F003077ED016F08B
:1010C800010657604DD00026D5196D6815F0010F3F
:1010D80006D1DB199568002E64D0D268EA60956065
:1010E80043F00102CB504A60002E35D1B3F5007FA2
:1010F80048D39E095A0A3836F500042A16D902F14F
:101108005B06F500142A11D91E0B6E36F500542A19
:101118000CD9DE0B7736F500B2F5AA7F06D940F276
:101128005455AA4274D89E0C7C36F500401940F2FA
:10113800F405C2F200058268824203D15FE092683A
:10114800904204D0556825F00305AB42F7D3D36825
:10115800CB608A60D16099602046BDE8F84001F014
:101168008BB955F8085C00F1080C491B5B198D68B0
:10117800654542D0D1F80CC0C5F80CC0CCF8085071
:10118800A2E7F8BDDB080125466800EBC3029B1007
:1011980005FA03F3CA609568334343608D60E960DC
:1011A8009160D9E71C4FBD4297D1416143F00102DC
:1011B8000161CD608D604A60CB50CDE7F2073B44BA
:1011C80007D455F8082C891A9B188D68CA68EA60F4
:1011D800956040F2005243F00105C2F200024D60F2
:1011E800816012689342B7D340F264532046C2F23A
:1011F80000031968FFF7F8FEAEE7012664E7012748
:101208006868B610134607FA06F6304368609FE729
:101218004FF47C757E2689E7FC0000202DE9F0411B
:1012280045F60024C0F6000484B005462668B46C70
:10123800002C42D060681F281ADD40F61520C0F641
:10124800000020B94FF0FF3004B0BDE8F0818C20D9
:10125800039102920193FFF7D9FB0399029A019B2C
:1012680004460028EED0B06C002784E88100B464FE
:10127800DDB1D4F8880020B3D0F800816668012772
:10128800022D06F1200C07FA06F740F8262048EA56
:10129800070240F82C3008BFD0F80431C0F800210C
:1012A80004BF1F43C0F8047100E06668B31C002047
:1012B8000136666044F82310C6E706F14C04B464AE
:1012C800B8E740F61520C0F600000028BAD04FF461
:1012D8008470039102920193FFF798FB0399029A95
:1012E800019B0028AED00026C0F80061C0F8046158
:1012F800B046C4F88800C1E780B582B000AF786016
:1013080039607B68DB68002B02D14FF0000325E0D1
:1013180003F06AF97B6819687B689B681A468A1823
:1013280011783A68117003F101027B689A607B6852
:101338009A687B685B689A4206DB7B689A687B6878
:101348005B68D21A7B689A607B68DB6803F1FF32BE
:101358007B68DA6003F05EF94FF00103184607F185
:101368000807BD4680BD00BF80B584B000AF786077
:101378000B46FB707B68DA687B685B689A4202DB25
:101388004FF0000321E003F02FF97B689A687B682F
:10139800DB68D318FB607B685A68FB689A4204DCF8
:1013A8007B685B68FA68D31AFB607B681A68FB681D
:1013B800D318FA781A707B68DB6803F101027B683E
:1013C800DA6003F027F94FF00103184607F1100718
:1013D800BD4680BD80B582B000AF4FF48053C4F2E3
:1013E80001031B889BB203F02003002B29D04FF484
:1013F8008053C4F201039B889BB2DBB240F20450D5
:10140800C2F200001946FFF7AFFF0346002B0CD1CC
:1014180040F29863C2F200031B6803F1010240F234
:101428009863C2F200031A600BE040F29863C2F2BC
:1014380000035B6803F1010240F29863C2F2000303
:101448005A604FF48053C4F201031B889BB203F027
:101458008003002B2CD040F21450C2F2000007F198
:1014680007031946FFF748FF0346002B06D04FF441
:101478008053C4F20103FA799A800DE04FF4805347
:10148800C4F201034FF48052C4F20102928992B26D
:1014980022F0800292B29A8140F29863C2F200036D
:1014A8009B6803F1010240F29863C2F200039A605C
:1014B80007F10807BD4680BD80B582B000AF03F0D4
:1014C80093F84FF4A053C4F200035B6A7B6040F2C8
:1014D800A463C2F200031B881A467B689A4203DDA4
:1014E8007B6803F580337B6040F2A463C2F200039B
:1014F8001B887A68D11A0A464FEAE27340F2A8615B
:10150800C2F20001D1E90001801841EB030140F269
:10151800A863C2F20003C3E900017B689AB240F2F3
:10152800A463C2F200031A8003F074F840F2A863BF
:10153800C2F20003D3E900231046194607F1080751
:10154800BD4680BD80B584B000AF3B46184603F069
:1015580025FE4FF46053C4F202034FF46052C4F204
:101568000202126C42F020021A644FF4A053C4F233
:101578000003F9684DF68362C4F21B32A2FB010234
:101588004FEA924292B202F1FF3292B21A854FF4B8
:10159800A053C4F200034FF6FF72DA624FF4A0536F
:1015A800C4F200034FF001021A8007F11007BD468C
:1015B80080BD00BF80B489B000AFF860B9607A60C0
:1015C800FB68FB61BB68DBB2BB600BE0BB68DAB2EF
:1015D800FB691A70FB6903F10103FB617B6803F186
:1015E800FF337B60FB6903F00403002B02D07B68A8
:1015F800002BEBD17B68002B2BD0BA6813464FEA3F
:1016080003239B184FEA03429B187B61FB69BB616C
:101618000AE0BB697A691A607B68A3F104037B60FE
:10162800BB6903F10403BB617B68032BF1D8BB6979
:10163800FB610BE0BB68DAB2FB691A707B6803F1E7
:10164800FF337B60FB6903F10103FB617B68002BBF
:10165800F0D1FB68184607F12407BD4680BC7047E7
:1016680080B48BB000AFF860B9607A60FB687B61CA
:10167800FB687B62BB683B627B6803F00303022B59
:1016880010D0032B02D0012B18D023E03B6A1A7824
:101698007B6A1A707B6A03F101037B623B6A03F180
:1016A80001033B623B6A1A787B6A1A707B6A03F112
:1016B80001037B623B6A03F101033B623B6A1A78D0
:1016C8007B6A1A707B6A03F101037B623B6A03F150
:1016D80001033B627B6AFB613B6ABB617B684FEA43
:1016E80093037B600BE0BB691A68FB691A60FB69AE
:1016F80003F10403FB61BB6903F10403BB617B686D
:10170800002B0CBF00230123DBB27A6802F1FF3201
:101718007A60002BE7D17B69184607F12C07BD4694
:1017280080BC704780B487B000AFF860B9607A6059
:10173800BB687B61FB683B6100BF7B68002B0CBF0B
:1017480000230123DBB27A6802F1FF327A60002BB2
:1017580014D07B691A783B691A703B691B78002B97
:101768000CBF00230123DBB23A6902F101023A619E
:101778007A6902F101027A61002BDED1FB68184612
:1017880007F11C07BD4680BC704700BF80B489B014
:1017980000AFF860B9607A603B603B687B614FF0EE
:1017A8000003FB613B68BA68D3184FF000021A7057
:1017B8003B6803F1FF333B60FB68002B0AD13B68B1
:1017C800BA68D3184FF030021A703B6803F1FF3340
:1017D8003B6045E0FB68002B42DAFB68C3F100037D
:1017E800FB604FF00103FB613AE07B68102B1ED1D0
:1017F800FB687A6893FBF2F2796801FB02F29B1AA4
:10180800092B14DD3B68BA68D218FB68796893FB2A
:10181800F1F1786800FB01F15B1ADBB203F13703E1
:10182800DBB213703B6803F1FF333B6013E03B68A6
:10183800BA68D218FB68796893FBF1F1786800FB05
:1018480001F15B1ADBB203F13003DBB213703B68C2
:1018580003F1FF333B60FA687B6892FBF3F3FB60AC
:10186800FB68002BC1DC7B68102B13D13B68BA687E
:10187800D3184FF078021A703B6803F1FF333B60CE
:101888003B68BA68D3184FF030021A703B6803F10E
:10189800FF333B60FB69002B09D03B68BA68D3185B
:1018A8004FF02D021A703B6803F1FF333B603B6831
:1018B80003F101033B604FF00003BB610FE0BB691C
:1018C800BA68D3183A68B9688A1812781A70BB6966
:1018D80003F10103BB613B6803F101033B607B69D2
:1018E80003F101023B689A42E9DC07F12407BD468F
:1018F80080BC704780B582B000AF78603960786886
:1019080039684FF010024FF00A03FFF73FFF07F165
:101918000807BD4680BD00BF80B582B000AF7860C3
:101928003960786839684FF00A024FF00603FFF70C
:101938002DFF07F10807BD4680BD00BF0EB480B576
:101948008DB000AF786007F140033B624FF00003B1
:10195800FB624FF000033B774FF000037B7745F6BF
:10196800DC03C0F6000319889A7807F11803198078
:101978009A704FF02503BB824FF00003BB62CDE0A5
:10198800B86A01F057FBFB6AFA6BD3181B78252B52
:1019980040F09880FB6A03F10103FA6BD3181B78B7
:1019A800732B12D13B6A03F104023A621B687B6213
:1019B80000BF7868796A4FF0FF324FF0000302F0F9
:1019C800F1F90346002BF4D077E0FB6A03F1010339
:1019D800FA6BD3181B78642B19D13B6A03F1040204
:1019E8003A621B68184607F108031946FFF794FF87
:1019F80000BF786807F1080319464FF0FF324FF02F
:101A0800000302F0CFF90346002BF2D055E0FB6A41
:101A180003F10103FA6BD3181B78632B15D13B6ACA
:101A280003F104023A621B68DBB23B7700BF7868B7
:101A380007F11C0319464FF0FF324FF0000302F084
:101A4800B1F90346002BF2D037E0FB6A03F101033A
:101A5800FA6BD3181B78782B19D13B6A03F104026F
:101A68003A621B68184607F108031946FFF742FF58
:101A780000BF786807F1080319464FF0FF324FF0AE
:101A8800000302F08FF90346002BF2D015E0FB6A41
:101A980003F10103FA6BD3181B78252B0DD100BF76
:101AA800786807F1140319464FF0FF324FF000032E
:101AB80002F078F90346002BF2D0FB6A03F1010328
:101AC800FB6227E0FB6AFA6BD3181B780A2B0ED14E
:101AD80000BF786807F1180319464FF0FF324FF03E
:101AE800000302F05FF90346002BF2D012E0FB6A14
:101AF800FA6BD3181B783B7700BF786807F11C0393
:101B080019464FF0FF324FF0000302F04BF903463D
:101B1800002BF2D0FB6A03F10103FB62FB6AFA6B4C
:101B2800D3181B78002B7FF42BAF07F13407BD4681
:101B3800BDE8804003B0704780B590B000AF7860D2
:101B4800FFE700BF40F2F873C2F200031B681846B3
:101B580007F10C0319464FF0FF324FF0000302F073
:101B6800F9F90346002BEDD04FF0000387F83F301A
:101B78001FE000BF4FF48840C4F200004FF080011E
:101B880003F008FE0346002BF4D097F83F3007F126
:101B98004002D31813F8343C4FF48840C4F20000D4
:101BA800194603F07FFD97F83F3003F1010387F8EA
:101BB8003F3097F83F3007F14002D31813F8343C10
:101BC800002BD6D1BDE700BF90B58DB002AF7860CD
:101BD8004FF00003FB844FF000033B844FF00003F9
:101BE800BB844FF0000387F823304FF00003FB83DA
:101BF80040F2F873C2F200031B68184645F6E0018C
:101C0800C0F60001FFF79AFE97F82330032B00F285
:101C1800598101A252F823F0311C0008731D0008F5
:101C2800A71D0008A91E000840F60003C2F2000321
:101C38001B68184601F010F90346012B40F081801B
:101C480040F2FC73C2F200031B889BB2FA8C9A42E2
:101C580005D240F2FC73C2F200031B88FB8440F2F9
:101C6800B063C2F200031B88002B00F02A814FF0FA
:101C7800010387F8233040F2FC73C2F200031B888B
:101C8800BB8440F60003C2F200031B684FF0000259
:101C9800009218464FF001014FF000024FF0000388
:101CA80000F042FE40F2B063C2F200034FF00002BF
:101CB8001A80FB8C07EE903AB8EEE77ADFED867A69
:101CC80067EE277A9FED857AC7EE877A17EE900A36
:101CD800FEF7EEFB02460B46C7E90423D7E90401E9
:101CE800FEF74CFE03469BB2BB81BB891846FEF744
:101CF800CDFB02460B46D7E90401FEF779FA024606
:101D08000B461046194672A3D3E90023FEF724FCBC
:101D180002460B4610461946FEF730FE03469BB2B4
:101D2800FB8140F2F873C2F200031968BB891A46B6
:101D3800FB89084645F6F401C0F60001FFF7FEFDF1
:101D4800BFE040F60003C2F200031C6801F0A0FAED
:101D580003464FF00002009220464FF000011A4659
:101D68004FF0000300F0E0FDABE040F2FC73C2F27C
:101D780000031B883B843A8CBB8C9A4204D94FF0F1
:101D8800020387F8233007E03A8CBB8C9A4203D2CF
:101D98004FF0030387F823303B8CBB8492E040F27A
:101DA800FC73C2F200031B883B843A8CBB8C9A42BA
:101DB80073D2BA8CFB8CA3F132039A426DDB40F6E6
:101DC8000C03C2F200031B68184601F045F80346ED
:101DD800012B4BD140F60C03C2F200031B684FF0F5
:101DE8000002009218464FF001014FF000024FF038
:101DF800000300F099FD40F2B263C2F200031B78C1
:101E0800002B0AD040F2B263C2F200031B7841F201
:101E1800707292FBF3F39BB201E04FF00003FB8377
:101E280040F2F873C2F200031B68184645F60C111D
:101E3800C0F60001FFF782FD40F2F873C2F200031A
:101E48001A68FB8B104645F62411C0F600011A46A5
:101E5800FFF774FD40F2B263C2F200034FF00002D4
:101E68001A704FF0000387F8233016E040F60C0391
:101E7800C2F200031C6801F00BFA03464FF000029F
:101E8800009220464FF000011A464FF0000300F080
:101E98004BFD4FF0030387F823303B8CBB8411E0E4
:101EA80040F2FC73C2F200031B883B843A8CBB8C63
:101EB8009A4203D94FF0020387F823303B8CBB8446
:101EC80000E000BF4FF0320001F0B4F89CE600BF1C
:101ED8000000000000408F40A4703D400000804595
:101EE80080B582B000AF786040F2F873C2F20003A8
:101EF8001B68184645F63411C0F60001FFF71EFDB1
:101F080007F10807BD4680BD80B483B000AF786094
:101F180040F2B263C2F200031B7803F10103DAB2A4
:101F280040F2B263C2F200031A7007F10C07BD4613
:101F380080BC704780B483B000AF786040F2B06373
:101F4800C2F200031B8803F101039AB240F2B063A6
:101F5800C2F200031A8007F10C07BD4680BC704727
:101F680090B589B004AF45F67813C0F6000393E83E
:101F7800070007F1040383E807007B681C4641F665
:101F8800E963C0F60003009345F64010C0F6000070
:101F980042F210714FF00002234600F091FC024615
:101FA80040F61403C2F200031A60BB681C4641F6EF
:101FB8003D73C0F60003009345F64C10C0F60000D0
:101FC8004FF47A714FF00102234600F079FC024683
:101FD80040F60003C2F200031A60FB681C4641F693
:101FE8001173C0F60003009345F65810C0F60000C0
:101FF8004FF00A014FF00102234600F061FC02464F
:1020080040F60C03C2F200031A604FF00F004FF0C5
:10201800320101F05FFE024640F2F873C2F200039B
:102028001A604FF00F004FF0010101F053FE024615
:1020380040F61003C2F200031A604FF001004FF09F
:10204800000101F047FE024640F60803C2F2000311
:102058001A6040F60803C2F200031B68002B0DD07B
:1020680040F60803C2F200031B6818464FF000014F
:102078004FF000024FF0000301F094FE00F07AFAEE
:102088004FF0000300934FF0000301934FF000035B
:1020980002934FF00003039341F64130C0F600006D
:1020A80045F66411C0F600014FF480724FF000034A
:1020B80000F0EAFE4FF0000300934FF00003019395
:1020C8004FF0000302934FF00003039341F6D13021
:1020D800C0F6000045F66C11C0F600014FF480729E
:1020E8004FF0000300F0D0FE00F0D2FF4FF00003E5
:1020F800184607F11407BD4690BD00BF002100F047
:1021080004B8104B5B58435004310F480F4B42182A
:102118009A42FFF4F6AF0E4A00F003B8002342F8E3
:10212800043B0C4B9A42FFF4F9AF0B48016841F4A9
:102138007001016000F014F8FEF740FCFFF710FF93
:10214800704700008C5A0008000000204405002059
:10215800480500202008002088ED00E0FFF7FEBFBA
:1021680080B500AF4FF46053C4F202034FF46052DD
:10217800C4F20202126842F001021A604FF460537E
:10218800C4F202034FF000029A604FF46053C4F2A5
:1021980002034FF46052C4F20202126822F0847201
:1021A80022F480321A604FF46053C4F2020343F2FF
:1021B8001002C2F200425A604FF46053C4F20203A4
:1021C8004FF46052C4F20202126822F480221A60AC
:1021D8004FF46053C4F202034FF00002DA6000F0DB
:1021E80009F84FF46D43CEF200034FF000629A6095
:1021F80080BD00BF80B483B000AF4FF000037B60A8
:102208004FF000033B604FF46053C4F202034FF4F5
:102218006052C4F20202126842F480321A604FF42B
:102228006053C4F202031B6803F400333B607B680D
:1022380003F101037B603B68002B03D17B68B3F596
:10224800A06FECD14FF46053C4F202031B6803F48F
:102258000033002B03D04FF001033B6002E04FF046
:1022680000033B603B68012B40F082804FF46053D1
:10227800C4F202034FF46052C4F20202126C42F03C
:1022880080521A644FF4E043C4F200034FF4E04272
:10229800C4F20002126842F480421A604FF460539C
:1022A800C4F202034FF46052C4F2020292689A60C8
:1022B8004FF46053C4F202034FF46052C4F20202B6
:1022C800926842F400429A604FF46053C4F20203E9
:1022D8004FF46052C4F20202926842F4A0529A602B
:1022E8004FF46053C4F2020345F20842C0F2407250
:1022F8005A604FF46053C4F202034FF46052C4F2C0
:102308000202126842F080721A6000BF4FF46053F4
:10231800C4F202031B6803F00073002BF6D04FF4DD
:102328007053C4F2020340F205621A604FF460531E
:10233800C4F202034FF46052C4F20202926822F01F
:1023480003029A604FF46053C4F202034FF46052E0
:10235800C4F20202926842F002029A6000BF4FF48F
:102368006053C4F202039B6803F00C03082BF6D1F8
:102378004FF46053C4F202034FF46052C4F20202F5
:10238800926822F400029A604FF46053C4F2020388
:102398004FF44052C5F20002C3F884204FF4605352
:1023A800C4F202034FF46052C4F20202126842F00F
:1023B80080621A6000BF4FF46053C4F202031B68C6
:1023C80003F00063002BF6D007F10C07BD4680BC74
:1023D800704700BF90B484B000AF7860396040F6B1
:1023E8001C03C2F200031B68002B08D140F61C0333
:1023F800C2F2000340F62002C2F200021A6040F660
:102408001C03C2F200031A683B68D218EFF3088471
:102418002346194640F22853C2F200031B68CB1A20
:102428009A4206D97B684FF00C021A604FF0FF33CE
:1024380012E040F61C03C2F200031B68FB6040F682
:102448001C03C2F200031A683B68D21840F61C034A
:10245800C2F200031A60FB68184607F11007BD4670
:1024680090BC704780B582B000AF786002F0BCF8CD
:1024780007F10807BD4680BD80B582B000AF78601F
:1024880002F0C8F807F10807BD4680BD90B585B0D1
:1024980002AF4FF48840C4F2000040F2277103F005
:1024A800ABF90346002B1AD040F60803C2F200032A
:1024B8001B6818464FF0000140F2B462C2F20002F5
:1024C8004FF0000301F0FEFC4FF48840C4F2000016
:1024D80040F227714FF0000203F00AF93CE04FF494
:1024E8008840C4F2000040F2255103F085F9034604
:1024F800002B30D04FF48840C4F2000003F0E6F817
:102508000346DBB23B7140F61403C2F200031C68B9
:1025180000F0BEFE03464FF00A02009220464FF03C
:1025280000011A464FF0000300F0FEF940F61003D0
:10253800C2F200031B68184607F10403194640F26B
:10254800B462C2F200024FF0000301F0BBFC034684
:10255800002B01D1FEE7FEE740F2B463C2F20003AC
:102568001B68002B01D002F033F807F10C07BD46B9
:1025780090BD00BF80B500AF4FF000604FF0000184
:1025880002F058F94FF4407002F0CEF800F010F85D
:1025980000F036F800F00CF900F07AF800F0C0F816
:1025A8004FF40050C4F2010002F0C0FA80BD00BF31
:1025B80080B500AF4FF480004FF0010102F0D4FE67
:1025C8004FF480704FF0010102F022FF4FF0040039
:1025D8004FF0010102F0C8FE4FF004004FF0010176
:1025E80002F0C2FE4FF001004FF0010102F0BCFE04
:1025F8004FF400304FF0010102F0E0FE80BD00BF53
:1026080080B582B000AF3B46184602F055FD4FF04A
:1026180001033B604FF003033B714FF40060C4F2C9
:1026280002003B46194602F0A5FC3B46184602F05C
:1026380043FD4FF00C033B604FF002033B714FF03A
:102648000003BB714FF00003FB714FF002037B7175
:102658004FF00000C4F202003B46194602F08AFC23
:102668004FF00000C4F202004FF002014FF00702E1
:1026780002F040FD4FF00000C4F202004FF00301E9
:102688004FF0070202F036FD07F10807BD4680BD8E
:1026980080B590B000AF46F27040C4F2020002F07C
:1026A8008DFA07F10403184602F002FC4FF000030C
:1026B8007B6042F24C03C4F20103BB6040F2FC733E
:1026C800C2F20003FB604FF000033B614FF00103CF
:1026D8007B614FF00003BB614FF48063FB614FF4F3
:1026E80000633B624FF400537B624FF40033FB629C
:1026F8004FF48073BB6246F27040C4F2020007F1E7
:102708000403194602F07CFB46F27040C4F2020052
:102718004FF0010102F012FC07F14007BD4680BDF1
:1027280080B586B000AF02F09BF84FF000033B6025
:102738004FF001033B714FF001037B714FF0000331
:10274800BB604FF000033B614FF001033B754FF452
:102758000050C4F201003B46194602F091F84FF4CC
:102768000050C4F201004FF00A014FF001024FF08F
:10277800010302F0FDF84FF40050C4F201004FF0DD
:10278800010102F0FFF94FF40050C4F201004FF0CC
:10279800010102F0DBF94FF40050C4F201004FF0E0
:1027A800010102F0C9F807F11807BD4680BD00BF56
:1027B80080B586B000AF4FF49643BB604FF000037E
:1027C800BB814FF00003FB814FF000033B824FF0C9
:1027D8000003BB824FF00C037B824FF48840C4F2A5
:1027E800000007F10803194602F066FE4FF488401E
:1027F800C4F200004FF0400102F0ECFF4FF48840B3
:10280800C4F2000040F227714FF0000202F070FF9E
:102818004FF48840C4F2000040F225514FF0010205
:1028280002F066FF4FF026033B714FF0CF037B7138
:102838004FF00003BB714FF00103FB7107F1040374
:10284800184601F085FF4FF48840C4F200004FF0AD
:10285800010102F007FF07F11807BD4680BD00BF60
:1028680080B586B004AF4FF000037B6000F0BCFA7F
:1028780040F2E863C2F200031B68002B1AD04FF045
:10288800010300934FF0000301934FF000030293FC
:102898004FF00003039342F64D20C0F6000045F6C2
:1028A8008411C0F600014FF480724FF0000300F06D
:1028B800EBFA78607B68184607F10807BD4680BDCB
:1028C80080B586B000AFF860B9607A603B60BB68DD
:1028D800002B03D14FF000037B611FE04FF028006D
:1028E800FEF794F803467B617B69002B16D000F055
:1028F8007BFA7B69FA681A607B69BA689A617B69B6
:102908007A68DA617B693A681A627B693A6A5A625C
:102918007B6903F10403184601F038FD7B6918460A
:1029280007F11807BD4680BD80B588B000AFF860D4
:10293800B9607A603B604FF00003FB6140F2E863E6
:10294800C2F200031B68002B3DD0BB683B617B686B
:102958007B61FB68BB613B68002B25D101F0E2F885
:102968000346012B0FD140F2E863C2F200031B6853
:10297800184607F110031946BA6A4FF0000301F030
:1029880011FAF8611FE040F2E863C2F200031B6825
:10299800184607F1100319464FF000024FF00003E4
:1029A80001F000FAF8610EE040F2E863C2F20003B9
:1029B8001B68184607F1100319463A684FF00003E0
:1029C80001F080FAF861FB69184607F12007BD4657
:1029D80080BD00BF80B586B002AF7860396040F234
:1029E800E063C2F200031B68DB68DB68FB60FB681E
:1029F80003F10403184601F039FDFB68DB69012B7C
:102A080018D1FB689A697B68D318F86819463A6840
:102A18007B6800F0B7F80346012B0BD14FF0000399
:102A28000093F8684FF000017A684FF00003FFF751
:102A38007BFFB860FB685B6AF868984707F1100786
:102A4800BD4680BD80B584B000AF786007F108034B
:102A5800184600F043F8F860BB68F868194600F0BB
:102A680003F800F0D9F8F1E780B584B000AF7860DA
:102A7800396000F051FB07F10803184600F056F8DA
:102A8800F860BB68002B21D13B68002B0AD17A681B
:102A9800FB689A4206D800F051FB7868F968FFF79E
:102AA80099FF17E040F2E863C2F200031A687968F8
:102AB800FB68CB1A1046194601F01AFC00F03EFBE1
:102AC8000346002B05D101F083FD02E000F036FB40
:102AD80000E000BF07F11007BD4680BD80B485B097
:102AE80000AF786040F2E063C2F200031B681B6825
:102AF800002B14BF002201227B681A607B681B68C8
:102B0800002B08D140F2E063C2F200031B68DB68C7
:102B18001B68FB6002E04FF00003FB60FB6818468F
:102B280007F11407BD4680BC704700BF80B584B06C
:102B380000AF786000F0ACFBF86040F2EC63C2F2E2
:102B480000031B68FA689A420CD240F2EC63C2F2A6
:102B580000031B68184600F0D9F87B684FF00102A3
:102B68001A6003E07B684FF000021A6040F2EC63E1
:102B7800C2F20003FA681A60FB68184607F11007EA
:102B8800BD4680BD80B586B000AFF860B9607A6098
:102B98003B604FF000037B61FB68BA685A60FB68D2
:102BA800FA681A61BA687B689A4217D87A683B68EB
:102BB800D21AFB689B699A4203D34FF001037B61E9
:102BC80024E040F2E463C2F200031A68FB6803F1F0
:102BD80004031046194601F00FFC17E07A683B68B9
:102BE8009A4207D2BA683B689A4203D34FF001036E
:102BF8007B610BE040F2E063C2F200031A68FB68F5
:102C080003F104031046194601F0F6FB7B691846E8
:102C180007F11807BD4680BD80B58AB002AF07F13D
:102C280004031846FFF782FFF86158E03B69BB616F
:102C3800BB69002B09D0BB695B69002B05D0BB6958
:102C480003F10403184601F011FCBB68032B43D8B9
:102C580001A252F823F000BF712C0008E12C0008F3
:102C6800BD2C0008D92C0008FA68BB699B69D218EA
:102C7800FB68B8691146FA69FFF784FF0346012B20
:102C88002CD1BB695B6AB8699847BB69DB69012BC2
:102C980024D1FA68BB699B69D3184FF000020092EF
:102CA800B8694FF000011A464FF00003FFF73CFEE9
:102CB800786113E0FA68BB699A61BB699A69FB6934
:102CC800D318B8691946FA69FB69FFF75BFF06E094
:102CD800B869FDF7A3FE02E000BF00E000BF40F2C4
:102CE800E863C2F200031B68184607F10803194697
:102CF8004FF000024FF0000301F02CF90346002BBF
:102D080094D107F12007BD4680BD00BF80B58AB0C9
:102D180002AF786045E040F2E063C2F200031B684E
:102D2800DB681B68FB6140F2E063C2F200031B68CA
:102D3800DB68DB68BB61BB6903F10403184601F07B
:102D480095FBBB695B6AB8699847BB69DB69012B6E
:102D580027D1BB699A69FB69D3187B617A69FB69DA
:102D68009A4212D9BB697A695A60BB69BA691A6111
:102D780040F2E063C2F200031A68BB6903F104037E
:102D88001046194601F038FB0BE04FF000030093A2
:102D9800B8694FF00001FA694FF00003FFF7C4FD6E
:102DA800386140F2E063C2F200031B681B68002B25
:102DB800B1D140F2E063C2F200031B68FB6040F24D
:102DC800E463C2F200031A6840F2E063C2F200034F
:102DD8001A6040F2E463C2F20003FA681A6007F16D
:102DE8002007BD4680BD00BF80B500AF01F0FCFBE9
:102DF80040F2E863C2F200031B68002B29D140F2BD
:102E0800B860C2F2000001F0A1FA40F2CC60C2F250
:102E1800000001F09BFA40F2E063C2F2000340F2C6
:102E2800B862C2F200021A6040F2E463C2F2000320
:102E380040F2CC62C2F200021A604FF00A004FF072
:102E48000C0100F047FF024640F2E863C2F20003BB
:102E58001A6001F0DFFB80BD80B584B000AF7860F8
:102E68007B68FB6001F0C0FBFB685B69002B0CBF53
:102E780000230123BB6001F0CDFBBB68184607F1B6
:102E88001007BD4680BD00BF80B58AB002AFF860AC
:102E9800B9603B601346FB80FB881846396B00F02D
:102EA800E7FDB861BB69002B00F0A580BB691A6B10
:102EB800FB8803F1FF334FEA8303D3187B617B69F7
:102EC80023F007037B61FB880093B869B968BA6A85
:102ED8007B6B00F0A5FC7869F9683A6801F0F0FAB4
:102EE8000246BB691A60FB6A002B02D0FB6ABA690A
:102EF8001A6001F079FB40F2CC73C2F200031B6840
:102F080003F1010240F2CC73C2F200031A6040F2EE
:102F1800F063C2F200031B68002B0FD140F2F0638C
:102F2800C2F20003BA691A6040F2CC73C2F200031D
:102F38001B68012B18D100F0B7FC15E040F2DC73D8
:102F4800C2F200031B68002B0ED140F2F063C2F2FC
:102F580000031B68DA6ABB6A9A4205D840F2F0633C
:102F6800C2F20003BA691A60BB69DA6A40F2D47324
:102F7800C2F200031B689A4206D9BB69DA6A40F2BA
:102F8800D473C2F200031A6040F2F073C2F2000375
:102F98001B6803F1010240F2F073C2F200031A60E9
:102FA800BB69DA6A40F2D873C2F200031B689A421E
:102FB80006D9BB69DA6A40F2D873C2F200031A6014
:102FC800BB69DA6A13464FEA83039B184FEA830307
:102FD8001A4640F2F463C2F20003D218BB6903F147
:102FE80004031046194601F0DFF94FF00103FB61B5
:102FF80001F010FB02E04FF0FF33FB61FB69012B8E
:1030080011D140F2DC73C2F200031B68002B0AD016
:1030180040F2F063C2F200031B68DA6ABB6A9A42A4
:1030280001D201F0D5FAFB69184607F12007BD4621
:1030380080BD00BF80B584B000AF78604FF000035A
:10304800FB607B68002B19D000F066F840F2D07363
:10305800C2F200031A687B68D318BB6040F2F063C1
:10306800C2F200031B6803F10403184601F0FEF9DD
:10307800B86800F0B7FC00F061F8F860FB68002B56
:1030880001D101F0A5FA07F11007BD4680BD00BFC8
:1030980080B586B004AF4FF00003009340F2C873C8
:1030A800C2F2000301934FF0000302934FF00003B4
:1030B800039343F60500C0F6000045F68C11C0F6F0
:1030C80000014FF480724FF00003FFF7DDFE7860D7
:1030D8007B68012B02D1FFF7C3FB78607B68012B6B
:1030E80015D14FF0BF0080F3118840F2DC73C2F2B3
:1030F80000034FF001021A6040F2D073C2F20003DD
:103108004FF000021A60FEF71DFA01F029FA07F1E4
:103118000807BD4680BD00BF80B400AF40F2E07331
:10312800C2F200031B6803F1010240F2E073C2F22D
:1031380000031A60BD4680BC704700BF90B583B0DD
:1031480000AF4FF000037B6001F04EFA40F2E073ED
:10315800C2F200031B6803F1FF3240F2E073C2F2CF
:1031680000031A6040F2E073C2F200031B68002BF0
:1031780040F0858040F2CC73C2F200031B68002B3C
:103188007DD04FF000033B603CE040F28873C2F210
:103198000003DB68DC6804F11803184601F066F9DF
:1031A80004F10403184601F061F9E26A40F2D873A9
:1031B800C2F200031B689A4205D9E26A40F2D8734A
:1031C800C2F200031A60E26A13464FEA83039B18AF
:1031D8004FEA83031A4640F2F463C2F20003D2189E
:1031E80004F104031046194601F0DEF8E26A40F2E1
:1031F800F063C2F200031B68DB6A9A4202D34FF005
:1032080001033B6040F28873C2F200031B68002B85
:10321800BBD140F2E473C2F200031B68002B18D044
:103228000DE000F049F840F2E473C2F200031B68B5
:1032380003F1FF3240F2E473C2F200031A6040F275
:10324800E473C2F200031B68002BEAD14FF00103BC
:103258003B603B68012B06D040F2E873C2F20003E2
:103268001B68012B0BD14FF001037B6040F2E87320
:10327800C2F200034FF000021A6001F0A9F901F050
:10328800C9F97B68184607F10C07BD4690BD00BF19
:1032980080B582B000AF01F0A7F940F2D073C2F256
:1032A80000031B687B6001F0B5F97B68184607F1DD
:1032B8000807BD4680BD00BF80B584B000AF40F2AE
:1032C800E073C2F200031B68002B40F0C08040F29C
:1032D800D073C2F200031B6803F1010240F2D073FD
:1032E800C2F200031A6040F2D073C2F200031B68F6
:1032F800002B40D140F28073C2F200031B68FB60D0
:1033080040F28473C2F200031A6840F28073C2F27A
:1033180000031A6040F28473C2F20003FA681A606C
:1033280040F2EC73C2F200031B6803F1010240F2A1
:10333800EC73C2F200031A6040F28073C2F2000319
:103348001B681B68002B07D140F22C53C2F2000304
:103358004FF0FF321A600EE040F28073C2F20003B1
:103368001B68DB68DB68BB60BB685A6840F22C539B
:10337800C2F200031A6040F2D073C2F200031A6866
:1033880040F22C53C2F200031B689A426BD340F2FE
:103398008073C2F200031B681B68002B07D140F240
:1033A8002C53C2F200034FF0FF321A605BE040F288
:1033B8008073C2F200031B68DB68DB68BB60BB6814
:1033C8005B687B6040F2D073C2F200031A687B68C6
:1033D8009A4206D240F22C53C2F200037A681A606D
:1033E80041E0BB6803F10403184601F03FF8BB68ED
:1033F8009B6A002B05D0BB6803F11803184601F03F
:1034080035F8BB68DA6A40F2D873C2F200031B6869
:103418009A4206D9BB68DA6A40F2D873C2F200034E
:103428001A60BB68DA6A13464FEA83039B184FEAAF
:1034380083031A4640F2F463C2F20003D218BB6851
:1034480003F104031046194600F0AEFF9FE740F26F
:10345800E473C2F200031B6803F1010240F2E47353
:10346800C2F200031A6007F11007BD4680BD00BF15
:1034780080B582B000AF40F2E073C2F200031B686F
:10348800002B07D040F2E873C2F200034FF00102AC
:103498001A6071E0FEF710F802460B4613467B608F
:1034A80040F2F063C2F200031A68D16C40F2F47380
:1034B800C2F200031B687868C31ACB18D36440F2C1
:1034C800F473C2F200037A681A600BE040F2D87312
:1034D800C2F200031B6803F1FF3240F2D873C2F254
:1034E80000031A6040F2D873C2F200031A68134648
:1034F8004FEA83039B184FEA83031A4640F2F463AA
:10350800C2F20003D3181B68002BDFD040F2D87337
:10351800C2F200031A6813464FEA83039B184FEA66
:1035280083031A4640F2F463C2F20003D3183B60E7
:103538003B685B685A683B685A603B685A683B68F6
:1035480003F108039A4204D13B685B685A683B68F8
:103558005A603B685B68DA6840F2F063C2F20003C5
:103568001A604FF4E843C4F2000340F2F062C2F27A
:1035780000021268926CDA6007F10807BD4680BD48
:1035880080B584B000AF7860396040F2F063C2F271
:1035980000031B6803F118037868194600F02CFF34
:1035A80040F2F063C2F200031B6803F104031846FB
:1035B80000F05CFF3B68B3F1FF3F0ED140F2F063CF
:1035C800C2F200031B6803F1040340F2B470C2F2B4
:1035D8000000194600F0E8FE0AE040F2D073C2F29B
:1035E80000031A683B68D318FB60F86800F0FAF922
:1035F80007F11007BD4680BD80B584B000AF786084
:10360800396040F2F063C2F200031B6803F118034B
:103618007868194600F0C8FE40F2F063C2F2000371
:103628001B6803F10403184600F020FF40F2D07332
:10363800C2F200031A683B68D318FB60F86800F010
:10364800D1F907F11007BD4680BD00BF80B584B031
:1036580000AF78607B68DB68DB68BB60BB6803F140
:103668001803184600F002FF40F2E073C2F20003AC
:103678001B68002B2BD1BB6803F10403184600F02C
:10368800F5FEBB68DA6A40F2D873C2F200031B6821
:103698009A4206D9BB68DA6A40F2D873C2F20003CC
:1036A8001A60BB68DA6A13464FEA83039B184FEA2D
:1036B80083031A4640F2F463C2F20003D218BB68CF
:1036C80003F104031046194600F06EFE09E0BB68DA
:1036D80003F1180340F28870C2F20000194600F0A6
:1036E80063FEBB68DA6A40F2F063C2F200031B684B
:1036F800DB6A9A4203D34FF00103FB6002E04FF00C
:103708000003FB60FB68184607F11007BD4680BD43
:1037180080B483B000AF786040F2EC73C2F200036B
:103728001A687B681A6040F2D073C2F200031A6804
:103738007B685A6007F10C07BD4680BC704700BF24
:1037480080B584B000AF7860396000F04DFF3B6809
:103758001B68B3F1FF3F03D14FF00003FB6038E073
:103768007B681A6840F2EC73C2F200031B689A4245
:103778000CD07B685A6840F2D073C2F200031B6811
:103788009A4203D84FF00103FB6022E040F2D07365
:10379800C2F200031A687B685B68D21A3B681B6830
:1037A8009A4213D23B681A687B68596840F2D07312
:1037B800C2F200031B68CB1AD2183B681A607868FB
:1037C800FFF7A6FF4FF00003FB6002E04FF0010394
:1037D800FB6000F01FFFFB68184607F11007BD46A5
:1037E80080BD00BF80B400AF40F2E873C2F20003AE
:1037F8004FF001021A60BD4680BC704780B582B0A8
:1038080000AF786000E000BF00F0A0F840F2F46379
:10381800C2F200031B68012BF5D900F0D9FEF2E7CC
:1038280080B584B000AFF860B9607A603B60FB682F
:1038380003F134031846B9684FF01002FDF772FF20
:10384800FB684FF0000283F843207B68042B02D901
:103858004FF004037B60FB687A68DA62FB687A6879
:103868005A64FB6803F10403184600F08FFDFB68F7
:1038780003F11803184600F089FDFB68FA681A611D
:103888007B68C3F10502FB689A61FB68FA685A62B3
:10389800FB684FF000029A64FB684FF00002DA649C
:1038A80007F11007BD4680BD80B582B000AF4FF06C
:1038B80000037B6013E07A6813464FEA83039B1882
:1038C8004FEA83031A4640F2F463C2F20003D318A6
:1038D800184600F03BFD7B6803F101037B607B68C1
:1038E800042BE8D940F25870C2F2000000F02EFD17
:1038F80040F26C70C2F2000000F028FD40F28870BF
:10390800C2F2000000F022FD40F29C70C2F20000FA
:1039180000F01CFD40F2B470C2F2000000F016FD89
:1039280040F28073C2F2000340F25872C2F2000201
:103938001A6040F28473C2F2000340F26C72C2F261
:1039480000021A6007F10807BD4680BD80B582B045
:1039580000AF40F2B073C2F200031B68002B3CD0EA
:10396800FFF7DAFB40F29C73C2F200031B68002BDE
:1039780014BF002301237B60FFF7E0FB7B68002B6B
:103988002BD100F031FE40F29C73C2F20003DB68D9
:10399800DB683B603B6803F10403184600F066FDF2
:1039A80040F2CC73C2F200031B6803F1FF3240F20D
:1039B800CC73C2F200031A6040F2B073C2F2000383
:1039C8001B6803F1FF3240F2B073C2F200031A60C1
:1039D80000F020FE386800F085F807F10807BD46BA
:1039E80080BD00BF80B582B000AF786040F2F06360
:1039F800C2F200031B687A685A6040F2D073C2F2C0
:103A080000031B687A689A4210D240F28473C2F2AB
:103A180000031A6840F2F063C2F200031B6803F166
:103A280004031046194600F0E7FC1DE040F28073DD
:103A3800C2F200031A6840F2F063C2F200031B6886
:103A480003F104031046194600F0D6FC40F22C534B
:103A5800C2F200031B687A689A4205D240F22C53DE
:103A6800C2F200037A681A6007F10807BD4680BDF4
:103A780080B584B000AF03463960FB804FF050003A
:103A8800FCF7C4FF0346FB60FB68002B23D03B68B0
:103A9800002B07D1FB884FEA83031846FCF7B6FFD3
:103AA800034600E03B68FA681363FB681B6B002B56
:103AB80006D1F868FCF7B2FF4FF00003FB600AE09C
:103AC800FB681A6BFB884FEA830310464FF0A50189
:103AD8001A46FDF76FFDFB68184607F11007BD464B
:103AE80080BD00BF80B582B000AF78607B681B6B7B
:103AF8001846FCF793FF7868FCF790FF07F1080772
:103B0800BD4680BD80B483B000AF40F2F063C2F21E
:103B180000031B687B607B68184607F10C07BD46ED
:103B280080BC704780B483B000AF40F2DC73C2F24F
:103B380000031B68002B03D14FF000037B600DE0EE
:103B480040F2E073C2F200031B68002B03D14FF070
:103B580001037B6002E04FF002037B607B6818463C
:103B680007F10C07BD4680BC704700BF80B584B024
:103B780000AF78607B68FB60FB68DA6A40F2F0634C
:103B8800C2F200031B68DB6A9A4257D240F2F06324
:103B9800C2F200031B68DB6AC3F10502FB689A6185
:103BA800FB685969FB68DA6A13464FEA83039B1876
:103BB8004FEA83031A4640F2F463C2F20003D318B3
:103BC800994233D1FB6803F10403184600F04EFC18
:103BD80040F2F063C2F200031B68DA6AFB68DA623B
:103BE800FB68DA6A40F2D873C2F200031B689A4293
:103BF80006D9FB68DA6A40F2D873C2F200031A6089
:103C0800FB68DA6A13464FEA83039B184FEA83037B
:103C18001A4640F2F463C2F20003D218FB6803F1BB
:103C280004031046194600F0BFFB07E040F2F063BA
:103C3800C2F200031B68DA6AFB68DA6207F1100750
:103C4800BD4680BD80B584B000AF78607B68FB60FE
:103C58007B68002B3AD0FB68DA6AFB685B6C9A4297
:103C680034D0FB6803F10403184600F0FFFBFB683F
:103C78005A6CFB68DA62FB68DB6AC3F10502FB6811
:103C88009A61FB68DA6A40F2D873C2F200031B68D3
:103C98009A4206D9FB68DA6A40F2D873C2F2000386
:103CA8001A60FB68DA6A13464FEA83039B184FEAE7
:103CB80083031A4640F2F463C2F20003D218FB6889
:103CC80003F104031046194600F06EFB07F11007D4
:103CD800BD4680BD80B586B000AF786039604FF0D2
:103CE80000037B617B68002B56D04FF04C00FCF73B
:103CF8008DFE03463B613B69002B4DD07B683A68DB
:103D080002FB03F303F10103FB60F868FCF77EFE96
:103D180003461A463B691A603B691B68002B38D07A
:103D28003B691A687B68396801FB03F3D2183B6961
:103D38005A603B694FF000029A633B691A683B6915
:103D48009A603B691A687B6803F1FF33396801FBA5
:103D580003F3D2183B69DA603B697A68DA633B6936
:103D68003A681A643B694FF0FF325A643B694FF076
:103D7800FF329A643B6903F11003184600F0E6FA33
:103D88003B6903F12403184600F0E0FA3B697B61C4
:103D980002E03869FCF742FE7B69184607F118070C
:103DA800BD4680BD80B588B000AFF860B9607A6064
:103DB8003B604FF00003FB6100E000BF00F014FC23
:103DC800FB689A6BFB68DB6B9A4218D2F868B96893
:103DD8003A6800F083F9FB685B6A002B0AD0FB683D
:103DE80003F124031846FFF731FC0346012B01D1E8
:103DF80000F0EEFB00F00EFC4FF001035DE07B6885
:103E0800002B04D100F006FC4FF0000355E0FB69DD
:103E1800002B07D107F114031846FFF779FC4FF080
:103E28000103FB6100F0F6FBFFF776F900F0DCFB1D
:103E3800FB685B6CB3F1FF3F03D1FB684FF00002F6
:103E48005A64FB689B6CB3F1FF3F03D1FB684FF0EA
:103E580000029A6400F0DEFB07F11403184607F12C
:103E680004031946FFF76CFC0346002B1ED1F868C3
:103E780000F026FA0346002B12D0FB6803F110026B
:103E88007B6810461946FFF77BFBF86800F0B2F92B
:103E9800FFF754F90346002B8FD100F099FB8CE70C
:103EA800F86800F0A7F9FFF749F986E7F86800F025
:103EB800A1F9FFF743F94FF00003184607F120076F
:103EC800BD4680BD80B586B000AFF860B9607A6045
:103ED8003B604FF000033B614FF0BF0080F3118857
:103EE800FB689A6BFB68DB6B9A4225D2F868B96865
:103EF8003A6800F0F3F8FB689B6CB3F1FF3F11D10F
:103F0800FB685B6A002B13D0FB6803F12403184697
:103F1800FFF79CFB0346002B0AD07B684FF0010299
:103F28001A6005E0FB689B6C03F10102FB689A6468
:103F38004FF001037B6102E04FF000037B614FF01B
:103F4800000080F311887B69184607F11807BD4601
:103F580080BD00BF80B588B000AFF860B9607A60F6
:103F68003B604FF00003FB6100E000BF00F03CFB4A
:103F7800FB689B6B002B3FD0FB68DB68BB61F86874
:103F8800B96800F00FF93B68002B1ED1FB689B6BEA
:103F980003F1FF32FB689A63FB681B68002B04D1AE
:103FA800FFF7B0FD0246FB685A60FB681B69002BEF
:103FB8001DD0FB6803F110031846FFF747FB0346C3
:103FC800012B14D100F004FB11E0FB68BA69DA6038
:103FD800FB685B6A002B0AD0FB6803F124031846D0
:103FE800FFF734FB0346002B01D000F0F1FA00F094
:103FF80011FB4FF001036BE07B68002B04D100F04C
:1040080009FB4FF0000363E0FB69002B07D107F1C0
:1040180010031846FFF77CFB4FF00103FB6100F02B
:10402800F9FAFFF779F800F0DFFAFB685B6CB3F197
:10403800FF3F03D1FB684FF000025A64FB689B6C9A
:10404800B3F1FF3F03D1FB684FF000029A6400F020
:10405800E1FA07F11003184607F104031946FFF7C0
:104068006FFB0346002B2CD1F86800F013F90346C8
:10407800002B20D0FB681B68002B08D100F0B4FA95
:10408800FB685B681846FFF771FD00F0C3FAFB6830
:1040980003F124027B6810461946FFF771FAF868A5
:1040A80000F0A8F8FFF74AF80346002B7FF45DAF4D
:1040B80000F08EFA59E7F86800F09CF8FFF73EF830
:1040C80053E7F86800F096F8FFF738F84FF0000368
:1040D800184607F12007BD4680BD00BF80B584B0F3
:1040E80000AFF860B9607A60FB681B6C002B0DD1DB
:1040F800FB681B68002B4AD1FB685B681846FFF712
:10410800A1FDFB684FF000025A6040E07B68002B7D
:104118001BD1FB689968FB681B6CBA680846114696
:104128001A46FDF79DFAFB689A68FB681B6CD21863
:10413800FB689A60FB689A68FB685B689A4226D3BA
:10414800FB681A68FB689A6021E0FB68D968FB681D
:104158001B6CBA68084611461A46FDF781FAFB68D7
:10416800DA68FB681B6CC3F10003D218FB68DA60DD
:10417800FB68DA68FB681B689A4208D2FB685A68D1
:10418800FB681B6CC3F10003D218FB68DA60FB689C
:104198009B6B03F10102FB689A6307F11007BD46A8
:1041A80080BD00BF80B582B000AF786039607B68A1
:1041B8001B68002B1AD07B68DA687B681B6CD218E6
:1041C8007B68DA607B68DA687B685B689A4203D34D
:1041D8007B681A687B68DA607B68DA687B681B6CC6
:1041E8003968084611461A46FDF73AFA07F10807F2
:1041F800BD4680BD80B582B000AF786000F0F4F9AC
:1042080014E07B685B6A002B15D07B6803F12403FC
:104218001846FFF71BFA0346002B01D0FFF7E2FA16
:104228007B689B6C03F1FF327B689A647B689B6CAC
:10423800002BE6DC00E000BF7B684FF0FF329A6499
:1042480000F0E8F900F0D0F914E07B681B69002B56
:1042580015D07B6803F110031846FFF7F7F90346FA
:10426800002B01D0FFF7BEFA7B685B6C03F1FF32CD
:104278007B685A647B685B6C002BE6DC00E000BF5F
:104288007B684FF0FF325A6400F0C4F907F1080761
:10429800BD4680BD80B584B000AF786000F0A4F959
:1042A8007B689B6B002B14BF00230123FB6000F08D
:1042B800B1F9FB68184607F11007BD4680BD00BF7D
:1042C80080B584B000AF786000F08EF97B689A6B97
:1042D8007B68DB6B9A4214BF00230123FB6000F06C
:1042E80099F9FB68184607F11007BD4680BD00BF65
:1042F80080B582B000AF7860396000F075F97B68EE
:104308005B6CB3F1FF3F03D17B684FF000025A6446
:104318007B689B6CB3F1FF3F03D17B684FF00002D1
:104328009A6400F077F97B689B6B002B06D17B6859
:1043380003F1240318463968FFF75EF97868FFF738
:1043480059FF07F10807BD4680BD00BF80B483B0A0
:1043580000AF78607B6803F108027B685A607B686D
:104368004FF0FF329A607B6803F108027B68DA60DD
:104378007B6803F108027B681A617B684FF00002D2
:104388001A6007F10C07BD4680BC704780B483B043
:1043980000AF78607B684FF000021A6107F10C07E4
:1043A800BD4680BC704700BF80B485B000AF786060
:1043B80039607B685B68FB60FB685A683B685A60D9
:1043C8007B685A683B689A60FB685B683A689A60E1
:1043D800FB683A685A607B683A685A603B687A6852
:1043E8001A617B681B6803F101027B681A6007F198
:1043F8001407BD4680BC704780B485B000AF7860B4
:1044080039603B681B68BB60BB68B3F1FF3F03D1F1
:104418007B681B69FB600DE07B6803F10803FB60A8
:1044280002E0FB685B68FB60FB685B681A68BB6856
:104438009A42F6D9FB685A683B685A603B685B68E1
:104448003A689A603B68FA689A60FB683A685A600A
:104458003B687A681A617B681B6803F101027B6814
:104468001A6007F11407BD4680BC704780B485B058
:1044780000AF78607B685B687A6892689A607B684E
:104488009B687A6852685A607B681B69FB60FB68A6
:104498005A687B689A4203D17B689A68FB685A60BD
:1044A8007B684FF000021A61FB681B6803F1FF325A
:1044B800FB681A6007F11407BD4680BC704700BF4F
:1044C80080B485B000AFF860B9607A60FB68A3F18A
:1044D8000403FB60FB684FF080721A60FB68A3F16D
:1044E8000403FB60BA68FB681A60FB68A3F1040365
:1044F800FB60FB684FF000021A60FB68A3F114032D
:10450800FB607A68FB681A60FB68A3F10403FB6030
:10451800FB686FF002021A60FB68A3F12003FB60DE
:10452800FB68184607F11407BD4680BC704700BFFA
:10453800054B19680868B0E8F04F80F309884FF018
:10454800000080F311887047F006002003480068D7
:10455800006880F3088862B600DF00BF08ED00E05D
:1045680080B500AF4EF62053CEF200034EF620522F
:10457800CEF20002126842F47F021A604EF620530F
:10458800CEF200034EF62052CEF20002126842F03C
:104598007F421A6000F09EF840F23053C2F20003E6
:1045A8004FF000021A6000F0B5F84EF63473CEF200
:1045B80000034EF63472CEF20002126842F0404216
:1045C8001A60FFF7C3FF4FF00003184680BD00BF15
:1045D80080B400AF4EF60453CEF200034FF0805281
:1045E8001A60BD4680BC704780B400AF4FF0BF0072
:1045F80080F3118840F23053C2F200031B6803F1C4
:10460800010240F23053C2F200031A60BD4680BC7A
:10461800704700BF80B400AF40F23053C2F20003CD
:104628001B6803F1FF3240F23053C2F200031A60F4
:1046380040F23053C2F200031B68002B03D14FF045
:10464800000080F31188BD4680BC7047EFF30980F5
:10465800114B1A681EF0100F08BF20ED108A20E9D0
:10466800F04F10602DE908404FF0BF0080F311882B
:10467800FEF7FEFE4FF0000080F31188BDE8084009
:1046880019680868B0E8F04F1EF0100F08BFB0ECCA
:10469800108A80F309887047F006002080B582B040
:1046A80000AF4EF60453CEF200034FF080521A606A
:1046B8004FF000037B604FF0BF0080F31188FEF7D6
:1046C800FBFD4FF0000080F3118807F10807BD4695
:1046D80080BD00BF80B400AF4EF21403CEF20003D9
:1046E80040F22452C2F20002116844F6D352C1F2D9
:1046F8006202A2FB01024FEA921202F1FF321A6033
:104708004EF21003CEF200034FF007021A60BD46C6
:1047180080BC7047DFF80C00016841F4700101604B
:104728007047000088ED00E080B483B000AF786087
:104738004FF46D43CEF200037A6842F0BE6242F451
:104748002022DA6007F10C07BD4680BC704700BF25
:1047580080B485B000AF78604FF00003FB734FF072
:104768000003BB734FF00F037B737B68DB78002B70
:1047780045D04FF46D43CEF20003DB686FEA0303C4
:1047880003F4E0634FEA1323FB73FB7BC3F10403D9
:10479800BB737A7BFB7B42FA03F37B737B685B78A2
:1047A8001A46BB7B02FA03F3FB737B689A787B7B20
:1047B8001340DAB2FB7B1343FB73FB7B4FEA031313
:1047C800FB734FF46143CEF200037A6812789B18AA
:1047D800FA7B83F800234FF46143CEF200037A6832
:1047E80012784FEA5212D2B27968097801F01F01A3
:1047F8004FF0010000FA01F143F8221014E04FF4E1
:104808006143CEF200037A6812784FEA5212D2B2AC
:104818007968097801F01F014FF0010000FA01F1F1
:1048280002F1200243F8221007F11407BD4680BCAC
:10483800704700BF80B483B000AF786039604FF430
:104848006D43CEF200033A6822F0604222F07F0204
:1048580079680A439A6007F10C07BD4680BC704727
:1048680080B500AF4FF480704FF0010100F0FAFD01
:104878004FF480704FF0000100F0F4FD80BD00BFE0
:1048880080B485B000AF786039604FF00003FB60FA
:104898004FF00003FB727B685B68FB60FB6823F0EA
:1048A800407323F48073FB603B681B794FEA032253
:1048B8003B681B681343FA681343FB607B68FA681C
:1048C8005A607B689B68FB60FA684FF2FD73CCF214
:1048D800FF031340FB603B681A693B68DB681A43B7
:1048E8003B689B681A433B685B794FEA4303134371
:1048F800FA681343FB607B68FA689A607B68DB6A36
:10490800FB60FB6823F47003FB603B681B7D03F1CD
:10491800FF33DAB2FB7A1343FB72FB7A4FEA035395
:10492800FA681343FB607B68FA68DA6207F11407D8
:10493800BD4680BC704700BF80B483B000AF7860CC
:104948000B46FB70FB78002B06D07B689B6843F016
:1049580001027B689A6005E07B689B6823F001028E
:104968007B689A6007F10C07BD4680BC704700BFA2
:1049780080B485B000AF7860F970BA707B704FF082
:104988000003FB604FF00003BB60FB78092B27D9BD
:104998007B68DB68FB60FA7813464FEA43039B1891
:1049A800A3F11E034FF0070202FA03F3BB60BB68D2
:1049B8006FEA0303FA681340FB607978FA781346C4
:1049C8004FEA43039B18A3F11E0301FA03F3BB60EC
:1049D800FA68BB681343FB607B68FA68DA6022E018
:1049E8007B681B69FB60FA7813464FEA43039B1800
:1049F8004FF0070202FA03F3BB60BB686FEA0303D8
:104A0800FA681340FB607978FA7813464FEA430353
:104A18009B1801FA03F3BB60FA68BB681343FB6099
:104A28007B68FA681A61BB78062B27D87B685B6BB2
:104A3800FB60BB7803F1FF3213464FEA83039B18F0
:104A48004FF01F0202FA03F3BB60BB686FEA03036F
:104A5800FA681340FB60F978BB7803F1FF3213461C
:104A68004FEA83039B1801FA03F3BB60FA68BB683B
:104A78001343FB607B68FA685A6351E0BB780C2BE0
:104A880027D87B681B6BFB60BA7813464FEA830311
:104A98009B18A3F123034FF01F0202FA03F3BB6034
:104AA800BB686FEA0303FA681340FB60F978BA78C9
:104AB80013464FEA83039B18A3F1230301FA03F378
:104AC800BB60FA68BB681343FB607B68FA681A63CB
:104AD80026E07B68DB6AFB60BA7813464FEA8303FB
:104AE8009B18A3F141034FF01F0202FA03F3BB60C6
:104AF800BB686FEA0303FA681340FB60F978BA7879
:104B080013464FEA83039B18A3F1410301FA03F309
:104B1800BB60FA68BB681343FB607B68FA68DA62BB
:104B280007F11407BD4680BC704700BF80B483B04E
:104B380000AF78607B689B6843F080427B689A602E
:104B480007F10C07BD4680BC704700BF80B483B036
:104B580000AF78600B46FB70FB78002B06D07B68B3
:104B68009B6843F480727B689A6005E07B689B6869
:104B780023F480727B689A6007F10C07BD4680BCFD
:104B8800704700BF80B483B000AF78600B46FB70FD
:104B9800FB78002B06D07B689B6843F400727B6827
:104BA8009A6005E07B689B6823F400727B689A60D2
:104BB80007F10C07BD4680BC704700BF80B483B0C6
:104BC80000AF78607B681B6823F001027B681A607D
:104BD8007B684FF000021A607B684FF000025A6051
:104BE8007B684FF000029A607B684FF00002DA6041
:104BF8007B684FF000021A617B684FF021025A610E
:104C08007A6846F21003C4F202039A4207D14FF4BD
:104C1800C043C4F202034FF03D029A60EBE07A68A9
:104C280046F22803C4F202039A4207D14FF4C04364
:104C3800C4F202034FF474629A60DCE07A6846F2C8
:104C48004003C4F202039A4207D14FF4C043C4F2AE
:104C580002034FF474129A60CDE07A6846F2580362
:104C6800C4F202039A4207D14FF4C043C4F20203CC
:104C78004FF074629A60BEE07A6846F27003C4F23C
:104C880002039A4209D14FF4C043C4F202034FF021
:104C98003D02C2F20002DA60ADE07A6846F28803AB
:104CA800C4F202039A4209D14FF4C043C4F202038A
:104CB8004FF47462C2F20002DA609CE07A6846F24D
:104CC800A003C4F202039A4209D14FF4C043C4F2CC
:104CD80002034FF00002C2F23D02DA608BE07A680C
:104CE80046F2B803C4F202039A4207D14FF4C04314
:104CF800C4F202034FF03D52DA607CE07A6846F273
:104D08001043C4F202039A4207D14FF4C843C4F2D5
:104D180002034FF03D029A606DE07A6846F228433C
:104D2800C4F202039A4207D14FF4C843C4F2020303
:104D38004FF474629A605EE07A6846F24043C4F2C7
:104D480002039A4207D14FF4C843C4F202034FF456
:104D580074129A604FE07A6846F25843C4F202032C
:104D68009A4207D14FF4C843C4F202034FF0746269
:104D78009A6040E07A6846F27043C4F202039A42AD
:104D880009D14FF4C843C4F202034FF03D02C2F206
:104D98000002DA602FE07A6846F28843C4F2020320
:104DA8009A4209D14FF4C843C4F202034FF4746223
:104DB800C2F20002DA601EE07A6846F2A043C4F24A
:104DC80002039A4209D14FF4C843C4F202034FF0D8
:104DD8000002C2F23D02DA600DE07A6846F2B8439A
:104DE800C4F202039A4206D14FF4C843C4F2020344
:104DF8004FF03D52DA6007F10C07BD4680BC7047A2
:104E080080B485B000AF786039604FF00003FB6074
:104E18007B681B68FB60FA6848F23F03CFF21C030B
:104E28001340FB603B681A683B68DB681A433B68C1
:104E38005B691A433B689B691A433B68DB691A4301
:104E48003B681B6A1A433B685B6A1A433B689B6A68
:104E58001A433B685B6B1A433B689B6B1343FA68C6
:104E68001343FB607B68FA681A607B685B69FB60C8
:104E7800FB6823F00703FB603B68DA6A3B681B6B3F
:104E88001343FA681343FB607B68FA685A613B680E
:104E98001A697B685A603B685A687B689A603B6805
:104EA8009A687B68DA6007F11407BD4680BC7047D2
:104EB80080B483B000AF78607B684FF000021A605E
:104EC8007B684FF000025A607B684FF000029A60DE
:104ED8007B684FF00002DA607B684FF000021A61CD
:104EE8007B684FF000025A617B684FF000029A61BC
:104EF8007B684FF00002DA617B684FF000021A62AB
:104F08007B684FF000025A627B684FF000029A6299
:104F18007B684FF00002DA627B684FF000021A6388
:104F28007B684FF000025A637B684FF000029A6377
:104F380007F10C07BD4680BC704700BF80B483B042
:104F480000AF78600B46FB70FB78002B06D07B68BF
:104F58001B6843F001027B681A6005E07B681B68E8
:104F680023F001027B681A6007F10C07BD4680BC7C
:104F7800704700BF80B487B000AF786039604FF0E9
:104F880000037B614FF000033B614FF00003FB60BF
:104F98004FF000037B6186E07B694FF0010202FA63
:104FA80003F33B613B681A683B691340FB60FA688E
:104FB8003B699A4273D17B681A687B694FEA43035D
:104FC8004FF0030101FA03F36FEA03031A407B6809
:104FD8001A607B681A683B681B7919467B694FEA37
:104FE800430301FA03F31A437B681A603B681B7991
:104FF800012B03D03B681B79022B34D17B689A685C
:105008007B694FEA43034FF0030101FA03F36FEAA8
:1050180003031A407B689A607B689A683B685B79EF
:1050280019467B694FEA430301FA03F31A437B6885
:105038009A607B685A687B699BB24FF0010101FA5C
:1050480003F36FEA03031A407B685A607B685A6867
:105058003B689B7919467B699BB201FA03F39BB2C3
:105068001A437B685A607B68DA687B699BB24FEAAF
:1050780043034FF0030101FA03F36FEA03031A40F5
:105088007B68DA607B68DA683B68DB7919467B699C
:105098004FEA430301FA03F31A437B68DA607B693A
:1050A80003F101037B617B690F2B7FF675AF07F175
:1050B8001C07BD4680BC704780B483B000AF7860E1
:1050C8007B684FF6FF721A607B684FF000021A7116
:1050D8007B684FF000025A717B684FF000029A71AA
:1050E8007B684FF00002DA7107F10C07BD4680BCFF
:1050F800704700BF80B485B000AF786013460A4699
:105108007A807B704FF00003FB604FF00003BB60B8
:105118007A787B8803F007034FEA830302FA03F3E4
:10512800FB607B884FEAD3039BB21A467B884FEA21
:10513800D3039BB219467B6801F1080153F821108B
:105148007B8803F007034FEA83034FF00F0000FA50
:1051580003F36FEA030319407B6802F1080243F87E
:1051680022107B884FEAD3039BB21A467B6802F170
:10517800080253F82220FB681343BB607B884FEA80
:10518800D3039BB21A467B6802F10802B96843F858
:10519800221007F11407BD4680BC704780B489B05F
:1051A80000AF78604FF00003BB614FF000037B61F4
:1051B8004FF00003FB614FF002033B614FF0000327
:1051C800FB604FF00203BB604FF46053C4F202036C
:1051D8009B6803F00C03BB61BB69042B0AD0082B46
:1051E8000FD0002B60D17A684FF41053C0F2F4034B
:1051F800136060E07A684FF49053C0F27A0313604A
:1052080059E04FF46053C4F202035B6803F480036F
:105218004FEA9353FB604FF46053C4F202035B6898
:1052280003F03F03BB60FB68002B14D04FF490538E
:10523800C0F27A03BA68B3FBF2F24FF46053C4F2D7
:105248000203596847F6C0730B404FEA931303FBF8
:1052580002F3FB6113E04FF41053C0F2F403BA6891
:10526800B3FBF2F24FF46053C4F20203596847F6F5
:10527800C0730B404FEA931303FB02F3FB614FF437
:105288006053C4F202035B6803F440334FEA1343EC
:1052980003F101034FEA43033B61FA693B69B2FB3F
:1052A800F3F27B681A6006E07A684FF41053C0F294
:1052B800F403136000BF4FF46053C4F202039B6809
:1052C80003F0F003BB61BB694FEA1313BB6140F203
:1052D8003453C2F20003BA699B181B78DBB27B61B6
:1052E8007B681A687B6922FA03F27B685A604FF47C
:1052F8006053C4F202039B6803F4E053BB61BB69CB
:105308004FEA9323BB6140F23453C2F20003BA69F7
:105318009B181B78DBB27B617B685A687B6922FA31
:1053280003F27B689A604FF46053C4F202039B68EF
:1053380003F46043BB61BB694FEA5333BB6140F27E
:105348003453C2F20003BA699B181B78DBB27B6145
:105358007B685A687B6922FA03F27B68DA6007F196
:105368002407BD4680BC704780B483B000AF786026
:105378000B46FB70FB78002B0CD04FF46053C4F243
:1053880002034FF46052C4F20202116B7A680A43B6
:105398001A630DE04FF46053C4F202034FF46052F5
:1053A800C4F20202116B7A686FEA02020A401A63B9
:1053B80007F10C07BD4680BC704700BF80B483B0BE
:1053C80000AF78600B46FB70FB78002B0CD04FF4D5
:1053D8006053C4F202034FF46052C4F20202116C2B
:1053E8007A680A431A640DE04FF46053C4F202036A
:1053F8004FF46052C4F20202116C7A686FEA02023A
:105408000A401A6407F10C07BD4680BC704700BF0C
:1054180080B483B000AF78600B46FB70FB78002B3C
:105428000CD04FF46053C4F202034FF46052C4F23C
:105438000202516C7A680A435A640DE04FF46053D3
:10544800C4F202034FF46052C4F20202516C7A684B
:105458006FEA02020A405A6407F10C07BD4680BC95
:10546800704700BF80B483B000AF78600B46FB7014
:10547800FB78002B0CD04FF46053C4F202034FF4B6
:105488006052C4F20202516A7A680A435A620DE015
:105498004FF46053C4F202034FF46052C4F20202A4
:1054A800516A7A686FEA02020A405A6207F10C07E9
:1054B800BD4680BC704700BF80B58AB000AF786039
:1054C80039604FF000037B624FF000033B624FF0FE
:1054D8000003FB614FF00003BB617B681B8A9BB232
:1054E8007B627B6A23F440537B623B68DB887A6A81
:1054F80013437B627B6A9AB27B681A827B689B89BA
:105508009BB27B627B6A23F4B05323F00C037B626B
:105518003B689A883B681B8913439AB23B685B894E
:1055280013439BB27A6A13437B627B6A9AB27B68A5
:105538009A817B689B8A9BB27B627B6A23F4407367
:105548007B623B689B897A6A13437B627B6A9AB267
:105558007B689A8207F108031846FFF71FFE7A68EE
:105568004FF48053C4F201039A4206D07A684FF48C
:10557800A053C4F201039A4202D17B693B6201E065
:105588003B693B627B689B899BB29BB21BB2002B39
:105598000FDA3A6A13464FEA83039B184FEA8302ED
:1055A8009A183B681B684FEA4303B2FBF3F3FB61AD
:1055B8000EE03A6A13464FEA83039B184FEA8302C8
:1055C8009A183B681B684FEA8303B2FBF3F3FB614D
:1055D800FA6948F21F53C5F2EB13A3FB02134FEA13
:1055E80053134FEA03137B627B6A4FEA13134FF09E
:1055F800640202FB03F3FA69D31ABB617B689B89D7
:105608009BB29BB21BB2002B12DABB694FEAC303F1
:1056180003F1320248F21F53C5F2EB13A3FB021346
:105628004FEA531303F007037A6A13437B6211E0CE
:10563800BB694FEA031303F1320248F21F53C5F264
:10564800EB13A3FB02134FEA531303F00F037A6A19
:1056580013437B627B6A9AB27B681A8107F1280739
:10566800BD4680BD80B483B000AF78600B46FB7048
:10567800FB78002B08D07B689B899BB243F40053CE
:105688009AB27B689A8107E07B689B899BB223F476
:1056980000539AB27B689A8107F10C07BD4680BC1B
:1056A800704700BF80B483B000AF78600B467B8042
:1056B8007B884FEAC3534FEAD3539AB27B689A80E8
:1056C80007F10C07BD4680BC704700BF80B483B0AB
:1056D80000AF78607B689B889BB24FEAC3534FEA60
:1056E800D3539BB2184607F10C07BD4680BC7047E0
:1056F80080B487B000AF786013460A467A807B7022
:105708004FF000033B614FF00003FB604FF00003D4
:10571800BB604FF000037B617B687B617B88DBB2F9
:105728004FEA5313DBB23B617B8803F01F03FB6036
:10573800FB684FF0010202FA03F3BB603B69012BDF
:1057480004D17B6903F10C037B610BE03B69022BFD
:1057580004D17B6903F110037B6103E07B6903F1EA
:1057680014037B617B78002B06D07B697A6911680A
:10577800BA680A431A6007E07B697A691168BA68EF
:105788006FEA02020A401A6007F11C07BD4680BC96
:10579800704700BF80B485B000AF78600B467B804F
:1057A8004FF00003FB737B681B889AB27B88134019
:1057B8009BB2002B03D04FF00103FB7302E04FF0C4
:1057C8000003FB73FB7B184607F11407BD4680BC3A
:1057D800704700BF80B483B000AF78600B467B8011
:1057E8007B886FEA03039AB27B681A8007F10C077B
:1057F800BD4680BC704700BF80B487B000AF7860FA
:105808000B467B804FF00003FB604FF000037B6189
:105818004FF00003BB604FF00003FB747B88DBB2E2
:105828004FEA5313DBB2BB607B8803F01F037B6135
:105838007B694FF0010202FA03F37B61BB68012B1D
:1058480006D17B689B899BB27A6913407B610FE024
:10585800BB68022B06D17B681B8A9BB27A6913400E
:105868007B6105E07B689B8A9BB27A6913407B6108
:105878007B884FEA13239BB2FB60FB684FF0010261
:1058880002FA03F3FB607B681B889BB2FA6813403B
:10589800FB607B69002B06D0FB68002B03D04FF020
:1058A8000103FB7402E04FF00003FB74FB7C184615
:1058B80007F11C07BD4680BC704700BF40F20003DB
:1058C800C0F200032BB140F6C170C0F60000FBF730
:1058D8006DBB70470A0D00005374617274205361E8
:1058E8006D706C696E672E2E2E0A00000A4D617865
:1058F800696D756D2069733A2025642E25642076BC
:105908000A0000000D202020202020202020202018
:10591800202020202020202020200D0048656172B2
:105928007420426561743A20256400003130207388
:1059380065632E2E2E0A0D005475726E4F666654DE
:10594800696D650031736563207469636B000000DD
:1059580031303020487A207469636B0055534152C6
:10596800540000004865617274426561740000006B
:10597800000000000100000002000000546D7220C9
:105988005376630049444C45000000000D0A0000AE
:105998002575202025632020252D313673202020D1
:1059A80020202020202020302020203025252020C5
:1059B8002535750D0A000000257520202563202057
:1059C800252D313673202531307520253375252551
:1059D80020202535750D0A002575202025632020F7
:1059E800252D313673202531307520203C31252571
:1059F80020202535750D0A00040000200000000055
:105A0800000000000000000000000000000000008E
:105A1800000000000000000000000000000000007E
:105A2800000000000000000000000000000000006E
:105A3800000000000000000000000000000000005E
:105A4800000000000000000000000000000000004E
:105A580000000000000000000000000043000000FB
:105A6800F8B500BFF8BC08BC9E467047F8B500BF43
:085A7800F8BC08BC9E46704713
:085A8000C5580008B50100083B
:045A88008901000888
:105A8C000400002000000000445A0008245A0008BA
:105A9C00045A000800000000000000000000000094
:105AAC0000000000645A0008000000000000000024
:105ABC0000000000000000000000000000000000DA
